:10000000B2C00000D0C00000CEC00000CCC00000D4
:10001000CAC00000C8C00000C6C00000C4C00000C4
:10002000C2C00000C0C00000BEC00000BCC00000D4
:10003000BAC00000B8C00000B6C00000B4C00000E4
:10004000B2C00000B0C00000AEC00000ACC00000F4
:10005000AAC00000A8C00000A6C00000A4C0000004
:10006000A2C00000A0C000009EC000009CC0000014
:100070009AC0000098C0000096C0000094C0000024
:1000800092C0000090C000008EC000008CC0000034
:100090008AC0000088C0000086C0000084C0000044
:1000A00082C0000080C000007EC000007CC0000054
:1000B0007AC0000078C0000076C0000074C0000064
:1000C00072C0000070C000006EC000006CC0000074
:1000D0006AC0000068C0000066C0000064C0000084
:1000E00062C0000007634236B79BD8A71A3968562A
:1000F00018AEBAAB558C1D3CB7CC5763BD6DEDFD4A
:10010000753EF6177231BF000000803F0800000006
:10011000BE922449123EABAAAA2ABECDCCCC4C3EFC
:1001200000000080BEABAAAAAA3E00000000BF00EB
:100130000000803F0000000000084178D3BB4387E7
:10014000D1133D190E3CC3BD4282AD2B3E68EC82FB
:1001500076BED98FE1A93E4C80EFFFBE01C4FF7F80
:100160003F000000000011241FBECFEFD1E2DEBF30
:10017000CDBF00E00CBF12E0A0E0B2E0ECE3FEE196
:1001800000E00BBF02C007900D92AE30B107D9F767
:1001900022E0AEE0B2E001C01D92A632B207E1F764
:1001A00094D30C941C0F2CCF86E69EE00197F1F7B8
:1001B00000004098419880E388B9429A8FEF97E415
:1001C0000197F1F700C00000429886E69EE0019793
:1001D000F1F700004098419880E388B9429A8FEF88
:1001E00097E40197F1F700C00000429886E69EE090
:1001F0000197F1F700004098419880E388B9429A4E
:100200008FEF97E40197F1F700C00000429886E66F
:100210009EE00197F1F700004098419880E288B98C
:10022000429A8FEF97E40197F1F700C000004298DF
:10023000089598B19F7098B998B1282F207F922B7C
:1002400098B940984198429AEFEFF7E43197F1F767
:1002500000C00000429898B19F7098B998B18295FB
:10026000807F892B88B940984198429A8FEF97E414
:100270000197F1F700C000004298089586E69EE0DD
:100280000197F1F7000088E2D4DF81E0D2DF86E059
:10029000D0DF8EE0CEDF80E8CCCF089598B19F709C
:1002A00098B998B1282F207F922B98B9409A4198FD
:1002B000429AEFEFF7E43197F1F700C0000042985F
:1002C00098B19F7098B998B18295807F892B88B931
:1002D000409A4198429A8FEF97E40197F1F700C056
:1002E00000004298089580E8A4CF0895CF93DF934B
:1002F000EC018881882329F02196D0DF8991811132
:10030000FCCFDF91CF910895823069F018F48130ED
:1003100031F00895833059F0843069F008958FE703
:10032000860F87CF08958FEB860F83CF089583E9DB
:10033000860F7FCF089583ED860F7BCF08950F93AF
:100340001F93CF93DF938A01E901882311F0611194
:1003500002C0C9DF01C0D8DFC530D10509F0D5C062
:100360009801329522952F7023273F702327A7E409
:10037000B3E00E940D0F9695879596958795969573
:100380008795C096909313028093120287DF98019D
:10039000369527953695279536952795A5ECB0E2A5
:1003A0000E940D0FAC01529542954F7045275F702A
:1003B000452750931602409315029A01ADECBCEC10
:1003C0000E940D0F9695879596958795969587959A
:1003D0009C01220F331F880F991F880F991F880FC8
:1003E000991F820F931F481B590BCA01C096909307
:1003F00023028093220252DF04C0C330D10509F0EA
:1004000089C098013695279536952795ABE7B4E1D5
:100410000E940D0FAC0156954795509316024093DC
:1004200015029A01ADECBCEC0E940D0F96958795D4
:1004300096958795969587959C01220F331F880F77
:10044000991F880F991F880F991F820F931F481BB0
:10045000590BCA01C09690931E0280931D021EDFA5
:100460009801ADECBCEC0E940D0FAC015695479580
:100470005695479556954795509316024093150209
:100480009A010E940D0F969587959695879596955A
:1004900087959C01220F331F880F991F880F991F82
:1004A000880F991F820F931F481B590BCA01C096D2
:1004B00090931C0280931B02F1DE03C0C130D10572
:1004C000F9F49801ADECBCEC0E940D0F9695879560
:1004D00096958795969587959C01220F331F880FD7
:1004E000991F880F991F880F991F820F931F081B50
:1004F000190BC801C0969093210280932002CEDE92
:10050000269764F085E4CADE09C0C430D10509F03D
:1005100074CF3DCFC230D10589F6A2CFDF91CF9104
:100520001F910F9108953B9A4398089586B1886072
:1005300088B90895F894F7DF7894089587B1876FA4
:1005400087B988B1807888B9089510BA11BA109225
:100550000701109208010895EAE7F0E01082109276
:100560007B0080E280937C0080E880BF86E8808307
:100570000895883018F098E090937B00877080622F
:1005800080937C00EAE7F0E0808180648083808152
:1005900084FFFDCF80917900EAE7F0E090819061DF
:1005A000908310927B000895682F70E080E090E0C7
:1005B0000E94B70C2FEE39EC43E95FE30E94A80DCF
:1005C0009B01AC0160E070E080E89FE30E941E0C9C
:1005D0002AE939EF4EE255E40E94450D20E030E073
:1005E00040E251E40E94450D0E94860CCB0161322D
:1005F00023E0720710F080E293E0089581B18F60EC
:1006000081B982B1807F82B9EAE0F1E080818861BE
:100610008083EBE0F1E080818861808308958EDF44
:1006200094DFECCF089592B1907F8F70982B92B9A0
:10063000089586E0F8CF089580E0F5CF089585E02D
:10064000F2CF08958AE0EFCF089589E0ECCF0895C6
:1006500084E0E9CF089582E0E6CF0895259A2D9AA7
:100660000895269A2E9A0895F9DFFBCF0895E1E2C6
:10067000F1E010828FEF8093250191E090932401A7
:10068000109229018093280110922B0180932A0156
:1006900010922D0180932C0189EA809320018BE038
:1006A00080830895F894BBDF57DFE8DDE0DF7894BE
:1006B0000895E1E8F0E010828CEF8093850081E0FE
:1006C0008093840093E0909389008FEF809388005B
:1006D00090938B0080938A0090938D0080938C0080
:1006E00090938700809386008BEA8093800010921D
:1006F00082008CE080830895F894B6DFDADF789486
:1007000008951092890083E2809388002FEF8FE78D
:100710009AE3215080409040E1F700C00000109221
:100720008B008EE480938A002FEF8FE79AE32150AD
:1007300080409040E1F700C000001092890083E5FE
:1007400080938800089510928B0083E280938A0042
:100750000895EF92FF920F931F93CF93DF9381E061
:1007600008DFC82FD0E083E004DFE82EF12C82E020
:1007700000DF082F10E02091060230910702C21717
:10078000D30738F5809104029091050280179107F4
:1007900080F4E216F30668F486E9809328018093DA
:1007A0002A0147DF2091060230910702C217D307C2
:1007B00080F480910402909105020817190748F40B
:1007C0002E153F0530F484E68093280180932A019A
:1007D00039DF20910602309107022C173D0780F483
:1007E00080910402909105020817190748F4E21657
:1007F000F30630F484E68093280180932A011FDFFA
:10080000DF91CF911F910F91FF90EF900895EF929C
:10081000FF920F931F93CF93DF9381E0AADEC82F3F
:10082000D0E083E0A6DEE82EF12C82E0A2DE082FE5
:1008300010E02091060230910702C217D30738F565
:1008400080910402909105028017910780F4E216CE
:10085000F30668F486E98093280180932A01F5DE87
:100860002091060230910702C217D30780F48091CD
:100870000402909105020817190748F42E153F0548
:1008800030F484E68093280180932A01DBDE2091F6
:100890000602309107022C173D0780F48091040274
:1008A000909105020817190748F4E216F30630F490
:1008B00084E68093280180932A01C1DEDF91CF91E5
:1008C0001F910F91FF90EF9008955F926F927F922A
:1008D0008F929F92AF92BF92CF92DF92EF92FF9250
:1008E0000F931F93CF93DF93DDDE24DE5DDC04DF07
:1008F00063E081E009DD88E092E0F8DC08E211E0E5
:100900000F2EF6E9FF2EF02DCAE2D1E044C081E0BF
:1009100030DEE82E83E02DDEC82E82E02ADED82EDF
:1009200018DF20910602309107024E2D50E0241767
:10093000350788F56D2D70E0409104025091050255
:100940004617570740F58C2D90E02817390718F502
:10095000F801F082F8826DDEFFEF2FEB3FE0F150FF
:1009600020403040E1F700C00000F801F082F8823A
:1009700069DEFFEF2FE336E2F15020403040E1F72F
:1009800000C00000809102029091030201969093B2
:100990000302809302028091020290910302019768
:1009A00009F4B5CF08E211E00F2EF6E9DF2EF02DA5
:1009B000CAE2D1E043C081E0DCDDC82E83E0D9DDAE
:1009C000B82E82E0D6DDE82EF12CC3DE209106029F
:1009D000309107024C2D50E04217530779F14091B6
:1009E0000402509105024E155F0540F58B2D90E0F5
:1009F0002817390718F5F801D082D8821ADEFFEFE0
:100A00002FEB3FE0F15020403040E1F700C0000004
:100A1000F801D082D88216DEFFEF2FE336E2F150E4
:100A200020403040E1F700C0000080910202909128
:100A300003020196909303028093020280910202C6
:100A400090910302029709F4B6CF08E211E00F2E4D
:100A5000F6E9FF2EF02DCAE2D1E041C081E089DD48
:100A6000E82E83E086DDC82E82E083DDD82E71DE9D
:100A700020910602309107024E2D50E024173507D1
:100A800070F56D2D70E040910402509105024617FB
:100A9000570728F58C2D90E02817390700F5F80145
:100AA000F082F882C6DDFFEF2FEB3FE0F1502040EF
:100AB0003040E1F700C00000C5DD4FEF8FEF93E25B
:100AC000415080409040E1F700C000008091020258
:100AD0009091030201969093030280930202809109
:100AE000020290910302039709F4B8CF0F2EF8E2A7
:100AF000AF2EBB24B394F02D0F2EFAE59F2EF02DD0
:100B00000F2EFAE2CF2EDD24D394F02DA8C081E081
:100B100030DDC82FD0E083E02CDDE82EF12C82E020
:100B200028DD082F10E08091060290910702C81777
:100B3000D90778F4209104023091050202171307B7
:100B400040F48E159F0528F4F5019082F6019082FD
:100B500079DD80910602909107028C179D0778F449
:100B600020910402309105020217130740F4E816A1
:100B7000F90628F4F5019082F601908260DD20915B
:100B8000060230910702C217D30708F068C08091AF
:100B90000402909105028017910708F060C0E216E8
:100BA000F30608F05CC089E0E4DC80931102FCDC11
:100BB000909301028093000223E030E0AC016EE0EC
:100BC00082E0BDDB809100029091010285369105A3
:100BD00030F0F5019082F60190822BDD40C09C013F
:100BE0002B5531092830310590F526DDFFEF2FEF29
:100BF0003CE2F15020403040E1F700C0000081DDD0
:100C00004FEF8FEF9CE2415080409040E1F700C0F1
:100C1000000012DDEFEFFFEF2CE2E150F04020404A
:100C2000E1F700C0000011DD3FEF4FE38BE03150F2
:100C300040408040E1F700C00000809102029091A6
:100C400003020196909303028093020208C0893543
:100C5000910528F4F5019082F6019082F6DC8091EE
:100C6000020290910302049709F451CF08E211E0C7
:100C70000F2EF6E9FF2EF02DCAE2D1E044C081E04C
:100C800078DCE82E83E075DCC82E82E072DCD82E9A
:100C9000BEDD20910602309107024E2D50E0241750
:100CA000350788F56D2D70E04091040250910502E2
:100CB0004617570740F58C2D90E02817390718F58F
:100CC000F801F082F882B5DCFFEF2FE736E1F15052
:100CD00020403040E1F700C00000F801F082F882C7
:100CE000AEDCFFEF2FE73DE0F15020403040E1F770
:100CF00000C000008091020290910302019690933F
:100D000003028093020280910202909103020597F0
:100D100009F4B5CF08E211E00F2EF6E9FF2EF02D11
:100D2000CAE2D1E037C081E024DCE82E83E021DC98
:100D3000C82E82E01EDCD82E0CDD209106023091F8
:100D400007024E2D50E02417350720F56D2D70E079
:100D5000409104025091050246175707D8F48C2D94
:100D600090E028173907B0F4F801F082F88261DCCE
:100D7000FFEF2FEB3FE0F15020403040E1F700C0A3
:100D80000000809102029091030201969093030269
:100D9000809302028091020290910302069709F467
:100DA000C2CF08E211E00F2EF6E9FF2EF02DCAE2C5
:100DB000D1E037C081E0DDDBE82E83E0DADBC82E4E
:100DC00082E0D7DBD82EC5DC2091060230910702E5
:100DD0004E2D50E02417350720F56D2D70E0409121
:100DE00004025091050246175707D8F48C2D90E065
:100DF00028173907B0F4F801F082F8821ADCFFEF07
:100E00002FEB3FE0F15020403040E1F700C0000000
:100E100080910202909103020196909303028093C5
:100E200002028091020290910302079709F4C2CF57
:100E300008E211E00F2EF6E9FF2EF02DCAE2D1E014
:100E400044C081E096DBE82E83E093DBC82E82E08D
:100E500090DBD82E7EDC20910602309107024E2DC9
:100E600050E02417350788F56D2D70E0409104029D
:100E7000509105024617570740F58C2D90E0281732
:100E8000390718F5F801F082F882D3DBFFEF2FEB7A
:100E90003FE0F15020403040E1F700C00000F80191
:100EA000F082F882CFDBFFEF2FE336E2F1502040F3
:100EB0003040E1F700C000008091020290910302EF
:100EC0000196909303028093020280910202909116
:100ED0000302089709F4B5CF08E211E00F2EF6E9F6
:100EE000FF2EF02DCAE2D1E037C081E042DBE82ED0
:100EF00083E03FDBC82E82E03CDBD82E2ADC209149
:100F00000602309107024E2D50E02417350720F5D8
:100F10006D2D70E04091040250910502461757076D
:100F2000D8F48C2D90E028173907B0F4F801F0823E
:100F3000F8827FDBFFEF2FE33BE0F15020403040B1
:100F4000E1F700C000008091020290910302019637
:100F50009093030280930202809102029091030217
:100F6000099709F4C2CF08E211E00F2EF0E5FF2E39
:100F7000F02DCAE2D1E04BC081E0FBDA83E0F9DA80
:100F800082E0F7DA89E0F5DA809311020DDB9093C5
:100F900001028093000223E030E0AC016EE082E0C9
:100FA000CED980910002909101028235910541F5E0
:100FB00043DB4FEF8FEF9CE2415080409040E1F7E0
:100FC00000C00000C0DBEFEFFFEF2CE2E150F0408B
:100FD0002040E1F700C0000038DB3FEF4FE38BE03B
:100FE000315040408040E1F700C000008091020293
:100FF000909103020196909303028093020207C02E
:101000008535910520F0F801F082F88212DB80919D
:101010000202909103020A9709F4AECF34C081E036
:10102000A8DAC82F83E0A5DA182F82E0A2DAD82F39
:10103000EEDB20910602309107024C2F50E024177E
:10104000350708F56D2F70E04091040250910502BC
:1010500046175707C0F4812F90E02817390798F4F6
:10106000EEDAFFEF2FEF3AE1F15020403040E1F7A8
:1010700000C00000809102029091030201969093BB
:1010800003028093020280910202909103020B9767
:1010900031F208E211E00F2EF6E9FF2EF02DCAE240
:1010A000D1E044C081E065DAE82E83E062DAC82E40
:1010B00082E05FDAD82E4DDB2091060230910702E4
:1010C0004E2D50E02417350788F56D2D70E04091C6
:1010D0000402509105024617570740F58C2D90E009
:1010E0002817390718F5F801F082F882A2DAFFEF25
:1010F0002FEB3FE0F15020403040E1F700C000000E
:10110000F801F082F8829BDAFFEF2FE336E2F1502C
:1011100020403040E1F700C0000080910202909131
:1011200003020196909303028093020280910202CF
:10113000909103020C9709F4B5CF08E211E00F2E4D
:10114000F6E9FF2EF02DCAE2D1E041C081E011DACC
:10115000E82E83E00EDAC82E82E00BDAD82EF9DA18
:1011600020910602309107024E2D50E024173507DA
:1011700070F56D2D70E04091040250910502461704
:10118000570728F58C2D90E02817390700F5F8014E
:10119000F082F8824EDAFFEF2FEB3FE0F150204073
:1011A0003040E1F700C000004DDA4FEF8FEF93E2DF
:1011B000415080409040E1F700C000008091020261
:1011C0009091030201969093030280930202809112
:1011D0000202909103020D9709F4B8CF0F2EF8E2A6
:1011E000AF2EBB24B394F02D0F2EF4E69F2EF02DDE
:1011F0000F2EFAE2CF2EDD24D394F02D9CC081E097
:10120000B8D9C82FD0E083E0B4D9E82EF12C82E021
:10121000B0D9082F10E08091060290910702C817FC
:10122000D90758F4209104023091050202171307E0
:1012300020F48E159F0508F405DA8091060290913E
:1012400007028C179D0758F4209104023091050283
:101250000217130720F4E816F90608F4F0D92091D4
:10126000060230910702C217D30708F064C08091CC
:101270000402909105028017910708F05CC0E21605
:10128000F30608F058C089E074D9809311028CD914
:10129000909301028093000223E030E0AC016EE005
:1012A00082E04DD88091000290910102853691052F
:1012B00030F0F5019082F6019082BBD93CC09C01D0
:1012C0002B5531092830310590F5B6D9FFEF2FEFB6
:1012D0003CE2F15020403040E1F700C0000011DA5C
:1012E0004FEF8FEF9CE2415080409040E1F700C00B
:1012F0000000A2D9EFEFFFEF2CE2E150F0402040D8
:10130000E1F700C00000A1D93FEF4FE38BE031507F
:1013100040408040E1F700C00000809102029091BF
:1013200003020196909303028093020204C0893560
:10133000910508F48AD980910202909103020E97D8
:1013400009F45DCF08E211E00F2EF6E9FF2EF02D33
:10135000CAE2D1E044C081E00CD9E82E83E009D98B
:10136000C82E82E006D9D82E52DA2091060230919A
:1013700007024E2D50E02417350788F56D2D70E0DB
:1013800040910402509105024617570740F58C2DF5
:1013900090E02817390718F5F801F082F88249D94A
:1013A000FFEF2FE736E1F15020403040E1F700C079
:1013B0000000F801F082F88242D9FFEF2FE73DE00C
:1013C000F15020403040E1F700C00000809102025F
:1013D0009091030201969093030280930202809100
:1013E0000202909103020F9709F4B5CF08E211E0D1
:1013F0000F2EF6E9FF2EF02DCAE2D1E044C081E0C5
:10140000B8D8E82E83E0B5D8C82E82E0B2D8D82E5E
:10141000A0D920910602309107024E2D50E02417EA
:10142000350788F56D2D70E040910402509105025A
:101430004617570740F58C2D90E02817390718F507
:10144000F801F082F882F5D8FFEF2FEB3FE0F15082
:1014500020403040E1F700C00000F801F082F8823F
:10146000EED8FFEF2FEF33E2F15020403040E1F7AC
:1014700000C00000809102029091030201969093B7
:10148000030280930202809102029091030240972E
:1014900009F4B5CF0F2EF8E2AF2EBB24B394F02D94
:1014A0000F2EF2E89F2EF02D0F2EFAE2CF2EDD2424
:1014B000D394F02D0F2EF6E98F2EF02D0F2EF7E896
:1014C0005F2EF02D0F2EFDE77F2EF02D0F2EF4E670
:1014D0006F2EF02DCAC081E04CD8C82FD0E083E039
:1014E00048D8E82EF12C82E044D8082F10E08091F3
:1014F0000402909105028017910778F4209106026A
:1015000030910702C217D307F0F4E216F30660F435
:10151000F5018082F60180828CD8209106023091FC
:101520000702C217D30778F4809104029091050254
:101530000817190740F42E153F0528F4F50190828D
:10154000F60190827FD880910602909107028C1755
:101550009D0778F4209104023091050202171307C9
:1015600040F4E816F90628F4F5019082F60190821D
:1015700066D88091060290910702C817D90708F033
:101580004FC020910402309105020217130708F0A2
:1015900047C0E816F90608F043C08AE00E94B90285
:1015A0008093100201D890930F0280930E0223E0E3
:1015B00030E0AC016EE081E00E949F0180910E025C
:1015C00090910F028935924028F0F5016082F60172
:1015D00060822FD880910E0290910F028D37910575
:1015E00068F020910002309101022835324030F439
:1015F000F5017082F60170822ED812C089379105EC
:1016000030F4F5017082F601708222D809C0885743
:101610009109069728F4F5015082F601508209D805
:1016200080910602909107028C179D07F0F420919B
:1016300004023091050220173107B8F48E159F057A
:10164000A0F40E941903FFEF2FEF38E0F150204083
:101650003040E1F700C00000809102029091030247
:10166000019690930302809302028091020290916E
:101670000302419709F42FCF08E211E00F2EF0E5A5
:10168000FF2EF02DCAE2D1E042C081E00E94B902F3
:1016900083E00E94B90282E00E94B90289E00E94C0
:1016A000B902809311020E94D402909301028093A8
:1016B000000223E030E0AC016EE082E00E949F0176
:1016C000809100029091010282359105C1F43BD8CE
:1016D0000E941C034FEF8FEF96E7E1E041508040FE
:1016E0009040E040D9F700C0000080910202909144
:1016F00003020196909303028093020208C085358D
:10170000910528F0F801F082F8820E941903809177
:101710000202909103028231910509F4B6CF4397FA
:10172000B1F40E949602FFEF2FEF30EEF15020400F
:101730003040E1F700C00000809102029091030266
:1017400001969093030280930202439751F380E045
:1017500090E0DF91CF911F910F91FF90EF90DF907C
:10176000CF90BF90AF909F908F907F906F905F9041
:1017700008955058BB27AA270ED04DC13ED130F056
:1017800043D120F031F49F3F11F41EF433C10EF425
:10179000E095E7FB29C1E92F4FD180F3BA17620723
:1017A00073078407950718F071F49EF567C10EF46E
:1017B000E0950B2EBA2FA02D0B01B90190010C0161
:1017C000CA01A0011124FF27591B99F0593F50F479
:1017D000503E68F11A16F040A22F232F342F4427D1
:1017E000585FF3CF469537952795A795F0405395C9
:1017F000C9F77EF41F16BA0B620B730B840BBAF099
:101800009150A1F0FF0FBB1F661F771F881FC2F703
:101810000EC0BA0F621F731F841F48F48795779517
:101820006795B795F7959E3F08F0B3CF9395880FCE
:1018300008F09927EE0F9795879508950CD0EBC087
:10184000E3D040F0DAD030F021F45F3F19F0CCC0A3
:10185000511115C1CFC0F0D098F39923C9F3552386
:10186000B1F3951B550BBB27AA2762177307840793
:1018700038F09F5F5F4F220F331F441FAA1FA9F349
:1018800033D00E2E3AF0E0E830D091505040E6953B
:10189000001CCAF729D0FE2F27D0660F771F881F9C
:1018A000BB1F261737074807AB07B0E809F0BB0B8B
:1018B000802DBF01FF2793585F4F2AF09E3F5105AF
:1018C00068F092C0DCC05F3FECF3983EDCF3869595
:1018D00077956795B795F7959F5FC9F7880F911D25
:1018E0009695879597F90895E1E0660F771F881F11
:1018F000BB1F621773078407BA0720F0621B730BC4
:10190000840BBA0BEE1F88F7E095089504D0689415
:10191000B111B5C0089598D088F09F5790F0B92FB5
:101920009927B751A0F0D1F0660F771F881F991F34
:101930001AF0BA95C9F712C0B13081F09FD0B1E06A
:1019400008959CC0672F782F8827B85F39F0B93F7A
:10195000CCF3869577956795B395D9F73EF4909536
:101960008095709561957F4F8F4F9F4F0895E894B4
:1019700009C097FB3EF490958095709561957F4FD7
:101980008F4F9F4F9923A9F0F92F96E9BB27939585
:10199000F695879577956795B795F111F8CFFAF495
:1019A000BB0F11F460FF1BC06F5F7F4F8F4F9F4FC6
:1019B00016C0882311F096E911C0772321F09EE824
:1019C000872F762F05C0662371F096E8862F70E08A
:1019D00060E02AF09A95660F771F881FDAF7880F64
:1019E0009695879597F9089597F99F6780E870E035
:1019F00060E008959FEF80EC089500240A94161685
:101A0000170618060906089500240A9412161306EC
:101A1000140605060895092E0394000C11F488237A
:101A200052F0BB0F40F4BF2B11F460FF04C06F5F96
:101A30007F4F8F4F9F4F089557FD9058440F551F6C
:101A400059F05F3F71F04795880F97FB991F61F040
:101A50009F3F79F087950895121613061406551FB7
:101A6000F2CF4695F1DF08C0161617061806991F23
:101A7000F1CF86957105610508940895E894BB2718
:101A800066277727CB0197F908950BD0C4CFB5DF30
:101A900028F0BADF18F0952309F0A6CFABCF1124B8
:101AA000EECFCADFA0F3959FD1F3950F50E0551FFD
:101AB000629FF001729FBB27F00DB11D639FAA27A3
:101AC000F00DB11DAA1F649F6627B00DA11D661FF2
:101AD000829F2227B00DA11D621F739FB00DA11D13
:101AE000621F839FA00D611D221F749F3327A00DCD
:101AF000611D231F849F600D211D822F762F6A2F69
:101B000011249F5750408AF0E1F088234AF0EE0FED
:101B1000FF1FBB1F661F771F881F91505040A9F7FA
:101B20009E3F510570F060CFAACF5F3FECF3983E27
:101B3000DCF3869577956795B795F795E7959F5F61
:101B4000C1F7FE2B880F911D9695879597F90895FB
:101B5000FA01EE0FFF1F30962105310599F161154D
:101B6000710561F48038BFE39B0749F168949038B0
:101B7000810561F08038BFEF9B0741F0992342F562
:101B8000FF3FE1053105210511F1E8940894E7953F
:101B9000D901AA2329F4AB2FBE2FF85FD0F310C0D0
:101BA000FF5F70F4A695E0F7F73950F019F0FF3AAF
:101BB00038F49F779F930CD00F9007FC90580895AE
:101BC0003EF018CF60E070E080E89FE308954FE7B3
:101BD0009F775F934F933F932F939ED02F913F9189
:101BE0004F915F9152DF05C019F40EF0FDCE46CF44
:101BF00001CF2ADFC8F39638C0F707F80F92E894B0
:101C00002BE33AEA48EB5FE74EDF0F920F920F9219
:101C10004DB75EB70F92C0D0E4EEF0E016D04F9112
:101C20005F91EF91FF91E595EE1FFF1F49F0FE5781
:101C3000E0684427EE0F441FFA95E1F74195550BF4
:101C400032D00F9007FE26C00895DF93CF931F93E5
:101C50000F93FF92EF92DF927B018C01689405C095
:101C6000DA2EEF011EDFFE01E894A5912591359152
:101C700045915591AEF3EF018EDDFE019701A8016C
:101C8000DA9479F7DF90EF90FF900F911F91CF9149
:101C9000DF9108959B01AC0160E070E080E89FE374
:101CA000CDCDA2CEACC0D0DEE8F39923D9F3940F0A
:101CB000511DBBF39150504094F059F0882332F0FD
:101CC000660F771F881F91505040C1F79E3F510506
:101CD00044F7880F911D9695879597F908955F3F72
:101CE000ACF0983E9CF0BB27869577956795B795A5
:101CF00008F4B1609395C1F7BB0F58F711F460FF7A
:101D0000E8CF6F5F7F4F8F4F9F4FE3CFB8CE0EF07E
:101D100076C070CE689468CE97DEC8F39923D1F36D
:101D2000C6F3DF93CF931F930F93FF92C92FDD2745
:101D300088232AF02197660F771F881FDAF720E0A3
:101D400030E040E85FEB9FE3883920F0803E30F0E0
:101D500021968F770FDDECE0F1E003C00BDDE9E3C6
:101D6000F1E073DF8B01BE01EC01FB2E6F577109AF
:101D70007595771F880B990BFCDD28E132E741E36D
:101D80005FE38FDEAF2D9801AE01FF900F911F91A1
:101D9000CF91DF9100DD3FCEFA01DC01AA0FBB1F1E
:101DA0009B01AC01BF5728F42227332744275078E2
:101DB0001FC0B75188F4AB2F00244695379527955F
:101DC000011CA395D2F3002069F0220F331F441F9A
:101DD000B395DAF30DD0CDCC61307105A0E88A0758
:101DE000B94630F49B01AC016627772788279078A5
:101DF000309621F0208331834283538308959F3F9F
:101E000031F0915020F4879577956795B795880FB5
:101E1000911D9695879597F90895A29FB001B39F5C
:101E2000C001A39F700D811D1124911DB29F700DE3
:0C1E3000811D1124911D0895F894FFCF2E
:0E1E3C00F40101001400140044494449000060
:00000001FF
